{
  "_format": "hh-sol-artifact-1",
  "contractName": "CrowdFunding",
  "sourceName": "contracts/CrowdFunding.sol",
  "abi": [
    {
      "inputs": [],
      "name": "CrowdFunding__CampaignNotFound",
      "type": "error"
    },
    {
      "inputs": [],
      "name": "CrowdFunding__PastDateError",
      "type": "error"
    },
    {
      "inputs": [],
      "name": "CrowdFunding__TransferFailed",
      "type": "error"
    },
    {
      "inputs": [
        {
          "internalType": "address",
          "name": "_owner",
          "type": "address"
        },
        {
          "internalType": "string",
          "name": "_title",
          "type": "string"
        },
        {
          "internalType": "string",
          "name": "_description",
          "type": "string"
        },
        {
          "internalType": "uint256",
          "name": "_target",
          "type": "uint256"
        },
        {
          "internalType": "uint256",
          "name": "_deadline",
          "type": "uint256"
        }
      ],
      "name": "createCampaign",
      "outputs": [
        {
          "internalType": "uint256",
          "name": "",
          "type": "uint256"
        }
      ],
      "stateMutability": "nonpayable",
      "type": "function"
    },
    {
      "inputs": [
        {
          "internalType": "uint256",
          "name": "_id",
          "type": "uint256"
        }
      ],
      "name": "donateToCampaign",
      "outputs": [],
      "stateMutability": "payable",
      "type": "function"
    },
    {
      "inputs": [],
      "name": "getCampaigns",
      "outputs": [
        {
          "components": [
            {
              "internalType": "address",
              "name": "owner",
              "type": "address"
            },
            {
              "internalType": "string",
              "name": "title",
              "type": "string"
            },
            {
              "internalType": "string",
              "name": "description",
              "type": "string"
            },
            {
              "internalType": "uint256",
              "name": "target",
              "type": "uint256"
            },
            {
              "internalType": "uint256",
              "name": "deadline",
              "type": "uint256"
            },
            {
              "internalType": "uint256",
              "name": "amountCollected",
              "type": "uint256"
            },
            {
              "internalType": "address[]",
              "name": "donors",
              "type": "address[]"
            },
            {
              "internalType": "uint256[]",
              "name": "donations",
              "type": "uint256[]"
            }
          ],
          "internalType": "struct CrowdFunding.Campaign[]",
          "name": "",
          "type": "tuple[]"
        }
      ],
      "stateMutability": "view",
      "type": "function"
    },
    {
      "inputs": [
        {
          "internalType": "uint256",
          "name": "_id",
          "type": "uint256"
        }
      ],
      "name": "getDonations",
      "outputs": [
        {
          "internalType": "address[]",
          "name": "",
          "type": "address[]"
        },
        {
          "internalType": "uint256[]",
          "name": "",
          "type": "uint256[]"
        }
      ],
      "stateMutability": "view",
      "type": "function"
    }
  ],
  "bytecode": "0x608060405234801561001057600080fd5b50611469806100206000396000f3fe60806040526004361061003f5760003560e01c8063075843c31461004457806342a4fda814610081578063596d9ce21461009d578063a6b03633146100db575b600080fd5b34801561005057600080fd5b5061006b60048036038101906100669190610a72565b610106565b6040516100789190610b34565b60405180910390f35b61009b60048036038101906100969190610b4f565b610207565b005b3480156100a957600080fd5b506100c460048036038101906100bf9190610b4f565b6103d3565b6040516100d2929190610cf8565b60405180910390f35b3480156100e757600080fd5b506100f06104e5565b6040516100fd9190611013565b60405180910390f35b600080600054905060006001600083815260200190815260200160002090504284101561015f576040517ff286fcfa00000000000000000000000000000000000000000000000000000000815260040160405180910390fd5b878160000160006101000a81548173ffffffffffffffffffffffffffffffffffffffff021916908373ffffffffffffffffffffffffffffffffffffffff160217905550868160010190816101b39190611241565b50858160020190816101c59190611241565b50838160040181905550848160030181905550600081600501819055506000808154809291906101f490611342565b9190505550819250505095945050505050565b60003490506000548210610247576040517fecbc6a6200000000000000000000000000000000000000000000000000000000815260040160405180910390fd5b600060016000848152602001908152602001600020905080600601339080600181540180825580915050600190039060005260206000200160009091909190916101000a81548173ffffffffffffffffffffffffffffffffffffffff021916908373ffffffffffffffffffffffffffffffffffffffff1602179055508060070182908060018154018082558091505060019003906000526020600020016000909190919091505560008160000160009054906101000a900473ffffffffffffffffffffffffffffffffffffffff1673ffffffffffffffffffffffffffffffffffffffff1683604051610338906113bb565b60006040518083038185875af1925050503d8060008114610375576040519150601f19603f3d011682016040523d82523d6000602084013e61037a565b606091505b50509050806103b5576040517f9066a63800000000000000000000000000000000000000000000000000000000815260040160405180910390fd5b8282600501546103c591906113d0565b826005018190555050505050565b60608060016000848152602001908152602001600020600601600160008581526020019081526020016000206007018180548060200260200160405190810160405280929190818152602001828054801561048357602002820191906000526020600020905b8160009054906101000a900473ffffffffffffffffffffffffffffffffffffffff1673ffffffffffffffffffffffffffffffffffffffff1681526020019060010190808311610439575b50505050509150808054806020026020016040519081016040528092919081815260200182805480156104d557602002820191906000526020600020905b8154815260200190600101908083116104c1575b5050505050905091509150915091565b60606000805467ffffffffffffffff81111561050457610503610911565b5b60405190808252806020026020018201604052801561053d57816020015b61052a610829565b8152602001906001900390816105225790505b50905060005b60005481101561082157600060016000838152602001908152602001600020905080604051806101000160405290816000820160009054906101000a900473ffffffffffffffffffffffffffffffffffffffff1673ffffffffffffffffffffffffffffffffffffffff1673ffffffffffffffffffffffffffffffffffffffff1681526020016001820180546105d790611064565b80601f016020809104026020016040519081016040528092919081815260200182805461060390611064565b80156106505780601f1061062557610100808354040283529160200191610650565b820191906000526020600020905b81548152906001019060200180831161063357829003601f168201915b5050505050815260200160028201805461066990611064565b80601f016020809104026020016040519081016040528092919081815260200182805461069590611064565b80156106e25780601f106106b7576101008083540402835291602001916106e2565b820191906000526020600020905b8154815290600101906020018083116106c557829003601f168201915b505050505081526020016003820154815260200160048201548152602001600582015481526020016006820180548060200260200160405190810160405280929190818152602001828054801561078e57602002820191906000526020600020905b8160009054906101000a900473ffffffffffffffffffffffffffffffffffffffff1673ffffffffffffffffffffffffffffffffffffffff1681526020019060010190808311610744575b50505050508152602001600782018054806020026020016040519081016040528092919081815260200182805480156107e657602002820191906000526020600020905b8154815260200190600101908083116107d2575b50505050508152505083838151811061080257610801611404565b5b602002602001018190525050808061081990611342565b915050610543565b508091505090565b604051806101000160405280600073ffffffffffffffffffffffffffffffffffffffff168152602001606081526020016060815260200160008152602001600081526020016000815260200160608152602001606081525090565b6000604051905090565b600080fd5b600080fd5b600073ffffffffffffffffffffffffffffffffffffffff82169050919050565b60006108c382610898565b9050919050565b6108d3816108b8565b81146108de57600080fd5b50565b6000813590506108f0816108ca565b92915050565b600080fd5b600080fd5b6000601f19601f8301169050919050565b7f4e487b7100000000000000000000000000000000000000000000000000000000600052604160045260246000fd5b61094982610900565b810181811067ffffffffffffffff8211171561096857610967610911565b5b80604052505050565b600061097b610884565b90506109878282610940565b919050565b600067ffffffffffffffff8211156109a7576109a6610911565b5b6109b082610900565b9050602081019050919050565b82818337600083830152505050565b60006109df6109da8461098c565b610971565b9050828152602081018484840111156109fb576109fa6108fb565b5b610a068482856109bd565b509392505050565b600082601f830112610a2357610a226108f6565b5b8135610a338482602086016109cc565b91505092915050565b6000819050919050565b610a4f81610a3c565b8114610a5a57600080fd5b50565b600081359050610a6c81610a46565b92915050565b600080600080600060a08688031215610a8e57610a8d61088e565b5b6000610a9c888289016108e1565b955050602086013567ffffffffffffffff811115610abd57610abc610893565b5b610ac988828901610a0e565b945050604086013567ffffffffffffffff811115610aea57610ae9610893565b5b610af688828901610a0e565b9350506060610b0788828901610a5d565b9250506080610b1888828901610a5d565b9150509295509295909350565b610b2e81610a3c565b82525050565b6000602082019050610b496000830184610b25565b92915050565b600060208284031215610b6557610b6461088e565b5b6000610b7384828501610a5d565b91505092915050565b600081519050919050565b600082825260208201905092915050565b6000819050602082019050919050565b610bb1816108b8565b82525050565b6000610bc38383610ba8565b60208301905092915050565b6000602082019050919050565b6000610be782610b7c565b610bf18185610b87565b9350610bfc83610b98565b8060005b83811015610c2d578151610c148882610bb7565b9750610c1f83610bcf565b925050600181019050610c00565b5085935050505092915050565b600081519050919050565b600082825260208201905092915050565b6000819050602082019050919050565b610c6f81610a3c565b82525050565b6000610c818383610c66565b60208301905092915050565b6000602082019050919050565b6000610ca582610c3a565b610caf8185610c45565b9350610cba83610c56565b8060005b83811015610ceb578151610cd28882610c75565b9750610cdd83610c8d565b925050600181019050610cbe565b5085935050505092915050565b60006040820190508181036000830152610d128185610bdc565b90508181036020830152610d268184610c9a565b90509392505050565b600081519050919050565b600082825260208201905092915050565b6000819050602082019050919050565b600081519050919050565b600082825260208201905092915050565b60005b83811015610d95578082015181840152602081019050610d7a565b60008484015250505050565b6000610dac82610d5b565b610db68185610d66565b9350610dc6818560208601610d77565b610dcf81610900565b840191505092915050565b600082825260208201905092915050565b6000610df682610b7c565b610e008185610dda565b9350610e0b83610b98565b8060005b83811015610e3c578151610e238882610bb7565b9750610e2e83610bcf565b925050600181019050610e0f565b5085935050505092915050565b600082825260208201905092915050565b6000610e6582610c3a565b610e6f8185610e49565b9350610e7a83610c56565b8060005b83811015610eab578151610e928882610c75565b9750610e9d83610c8d565b925050600181019050610e7e565b5085935050505092915050565b600061010083016000830151610ed16000860182610ba8565b5060208301518482036020860152610ee98282610da1565b91505060408301518482036040860152610f038282610da1565b9150506060830151610f186060860182610c66565b506080830151610f2b6080860182610c66565b5060a0830151610f3e60a0860182610c66565b5060c083015184820360c0860152610f568282610deb565b91505060e083015184820360e0860152610f708282610e5a565b9150508091505092915050565b6000610f898383610eb8565b905092915050565b6000602082019050919050565b6000610fa982610d2f565b610fb38185610d3a565b935083602082028501610fc585610d4b565b8060005b858110156110015784840389528151610fe28582610f7d565b9450610fed83610f91565b925060208a01995050600181019050610fc9565b50829750879550505050505092915050565b6000602082019050818103600083015261102d8184610f9e565b905092915050565b7f4e487b7100000000000000000000000000000000000000000000000000000000600052602260045260246000fd5b6000600282049050600182168061107c57607f821691505b60208210810361108f5761108e611035565b5b50919050565b60008190508160005260206000209050919050565b60006020601f8301049050919050565b600082821b905092915050565b6000600883026110f77fffffffffffffffffffffffffffffffffffffffffffffffffffffffffffffffff826110ba565b61110186836110ba565b95508019841693508086168417925050509392505050565b6000819050919050565b600061113e61113961113484610a3c565b611119565b610a3c565b9050919050565b6000819050919050565b61115883611123565b61116c61116482611145565b8484546110c7565b825550505050565b600090565b611181611174565b61118c81848461114f565b505050565b5b818110156111b0576111a5600082611179565b600181019050611192565b5050565b601f8211156111f5576111c681611095565b6111cf846110aa565b810160208510156111de578190505b6111f26111ea856110aa565b830182611191565b50505b505050565b600082821c905092915050565b6000611218600019846008026111fa565b1980831691505092915050565b60006112318383611207565b9150826002028217905092915050565b61124a82610d5b565b67ffffffffffffffff81111561126357611262610911565b5b61126d8254611064565b6112788282856111b4565b600060209050601f8311600181146112ab5760008415611299578287015190505b6112a38582611225565b86555061130b565b601f1984166112b986611095565b60005b828110156112e1578489015182556001820191506020850194506020810190506112bc565b868310156112fe57848901516112fa601f891682611207565b8355505b6001600288020188555050505b505050505050565b7f4e487b7100000000000000000000000000000000000000000000000000000000600052601160045260246000fd5b600061134d82610a3c565b91507fffffffffffffffffffffffffffffffffffffffffffffffffffffffffffffffff820361137f5761137e611313565b5b600182019050919050565b600081905092915050565b50565b60006113a560008361138a565b91506113b082611395565b600082019050919050565b60006113c682611398565b9150819050919050565b60006113db82610a3c565b91506113e683610a3c565b92508282019050808211156113fe576113fd611313565b5b92915050565b7f4e487b7100000000000000000000000000000000000000000000000000000000600052603260045260246000fdfea26469706673582212202eabf8145033eebdb840d01622ac40a18e4d90b4fcd50b4c5b61af6c9e0e459d64736f6c63430008130033",
  "linkReferences": {},
  "deployedLinkReferences": {}
}